{
  "abi": [
    {
      "inputs": [
        {
          "internalType": "address",
          "name": "_axiomV2QueryAddress",
          "type": "address"
        },
        {
          "internalType": "uint64",
          "name": "_callbackSourceChainId",
          "type": "uint64"
        },
        {
          "internalType": "bytes32",
          "name": "_axiomCallbackQuerySchema",
          "type": "bytes32"
        }
      ],
      "stateMutability": "nonpayable",
      "type": "constructor"
    },
    {
      "anonymous": false,
      "inputs": [
        {
          "indexed": false,
          "internalType": "address",
          "name": "token",
          "type": "address"
        }
      ],
      "name": "AirdropTokenAddressUpdated",
      "type": "event"
    },
    {
      "anonymous": false,
      "inputs": [
        {
          "indexed": false,
          "internalType": "address",
          "name": "axiomCallbackCallerAddr",
          "type": "address"
        }
      ],
      "name": "AxiomCallbackCallerAddrUpdated",
      "type": "event"
    },
    {
      "anonymous": false,
      "inputs": [
        {
          "indexed": false,
          "internalType": "bytes32",
          "name": "axiomCallbackQuerySchema",
          "type": "bytes32"
        }
      ],
      "name": "AxiomCallbackQuerySchemaUpdated",
      "type": "event"
    },
    {
      "anonymous": false,
      "inputs": [
        {
          "indexed": true,
          "internalType": "uint64",
          "name": "sourceChainId",
          "type": "uint64"
        },
        {
          "indexed": false,
          "internalType": "address",
          "name": "callerAddr",
          "type": "address"
        },
        {
          "indexed": true,
          "internalType": "bytes32",
          "name": "querySchema",
          "type": "bytes32"
        },
        {
          "indexed": true,
          "internalType": "bytes32",
          "name": "queryHash",
          "type": "bytes32"
        }
      ],
      "name": "AxiomV2Call",
      "type": "event"
    },
    {
      "anonymous": false,
      "inputs": [
        {
          "indexed": true,
          "internalType": "address",
          "name": "user",
          "type": "address"
        },
        {
          "indexed": true,
          "internalType": "bytes32",
          "name": "queryHash",
          "type": "bytes32"
        },
        {
          "indexed": false,
          "internalType": "uint256",
          "name": "numTokens",
          "type": "uint256"
        },
        {
          "indexed": false,
          "internalType": "bytes32[]",
          "name": "axiomResults",
          "type": "bytes32[]"
        }
      ],
      "name": "ClaimAirdrop",
      "type": "event"
    },
    {
      "anonymous": false,
      "inputs": [
        {
          "indexed": true,
          "internalType": "address",
          "name": "user",
          "type": "address"
        },
        {
          "indexed": false,
          "internalType": "string",
          "name": "error",
          "type": "string"
        }
      ],
      "name": "ClaimAirdropError",
      "type": "event"
    },
    {
      "anonymous": false,
      "inputs": [
        {
          "indexed": true,
          "internalType": "address",
          "name": "previousOwner",
          "type": "address"
        },
        {
          "indexed": true,
          "internalType": "address",
          "name": "newOwner",
          "type": "address"
        }
      ],
      "name": "OwnershipTransferred",
      "type": "event"
    },
    {
      "inputs": [],
      "name": "SWAP_EVENT_SCHEMA",
      "outputs": [
        {
          "internalType": "bytes32",
          "name": "",
          "type": "bytes32"
        }
      ],
      "stateMutability": "view",
      "type": "function"
    },
    {
      "inputs": [],
      "name": "UNI_UNIV_ROUTER_ADDR",
      "outputs": [
        {
          "internalType": "address",
          "name": "",
          "type": "address"
        }
      ],
      "stateMutability": "view",
      "type": "function"
    },
    {
      "inputs": [],
      "name": "axiomCallbackCallerAddr",
      "outputs": [
        {
          "internalType": "address",
          "name": "",
          "type": "address"
        }
      ],
      "stateMutability": "view",
      "type": "function"
    },
    {
      "inputs": [],
      "name": "axiomCallbackQuerySchema",
      "outputs": [
        {
          "internalType": "bytes32",
          "name": "",
          "type": "bytes32"
        }
      ],
      "stateMutability": "view",
      "type": "function"
    },
    {
      "inputs": [
        {
          "internalType": "uint64",
          "name": "sourceChainId",
          "type": "uint64"
        },
        {
          "internalType": "address",
          "name": "callerAddr",
          "type": "address"
        },
        {
          "internalType": "bytes32",
          "name": "querySchema",
          "type": "bytes32"
        },
        {
          "internalType": "bytes32",
          "name": "queryHash",
          "type": "bytes32"
        },
        {
          "internalType": "bytes32[]",
          "name": "axiomResults",
          "type": "bytes32[]"
        },
        {
          "internalType": "bytes",
          "name": "callbackExtraData",
          "type": "bytes"
        }
      ],
      "name": "axiomV2Callback",
      "outputs": [],
      "stateMutability": "nonpayable",
      "type": "function"
    },
    {
      "inputs": [],
      "name": "axiomV2QueryAddress",
      "outputs": [
        {
          "internalType": "address",
          "name": "",
          "type": "address"
        }
      ],
      "stateMutability": "view",
      "type": "function"
    },
    {
      "inputs": [],
      "name": "callbackSourceChainId",
      "outputs": [
        {
          "internalType": "uint64",
          "name": "",
          "type": "uint64"
        }
      ],
      "stateMutability": "view",
      "type": "function"
    },
    {
      "inputs": [
        {
          "components": [
            {
              "internalType": "uint64",
              "name": "sourceChainId",
              "type": "uint64"
            },
            {
              "internalType": "bytes32",
              "name": "dataQueryHash",
              "type": "bytes32"
            },
            {
              "components": [
                {
                  "internalType": "uint8",
                  "name": "k",
                  "type": "uint8"
                },
                {
                  "internalType": "bytes32[]",
                  "name": "vkey",
                  "type": "bytes32[]"
                },
                {
                  "internalType": "bytes",
                  "name": "computeProof",
                  "type": "bytes"
                }
              ],
              "internalType": "struct IAxiomV2Query.AxiomV2ComputeQuery",
              "name": "computeQuery",
              "type": "tuple"
            },
            {
              "components": [
                {
                  "internalType": "address",
                  "name": "callbackAddr",
                  "type": "address"
                },
                {
                  "internalType": "bytes4",
                  "name": "callbackFunctionSelector",
                  "type": "bytes4"
                },
                {
                  "internalType": "uint8",
                  "name": "resultLen",
                  "type": "uint8"
                },
                {
                  "internalType": "bytes",
                  "name": "callbackExtraData",
                  "type": "bytes"
                }
              ],
              "internalType": "struct IAxiomV2Query.AxiomV2Callback",
              "name": "callback",
              "type": "tuple"
            },
            {
              "internalType": "uint64",
              "name": "maxFeePerGas",
              "type": "uint64"
            },
            {
              "internalType": "uint32",
              "name": "callbackGasLimit",
              "type": "uint32"
            },
            {
              "internalType": "bytes",
              "name": "dataQuery",
              "type": "bytes"
            }
          ],
          "internalType": "struct IAxiomV2Input.AxiomV2QueryData",
          "name": "axiomData",
          "type": "tuple"
        }
      ],
      "name": "claimAirdrop",
      "outputs": [],
      "stateMutability": "payable",
      "type": "function"
    },
    {
      "inputs": [
        {
          "internalType": "address",
          "name": "",
          "type": "address"
        }
      ],
      "name": "hasClaimed",
      "outputs": [
        {
          "internalType": "bool",
          "name": "",
          "type": "bool"
        }
      ],
      "stateMutability": "view",
      "type": "function"
    },
    {
      "inputs": [],
      "name": "owner",
      "outputs": [
        {
          "internalType": "address",
          "name": "",
          "type": "address"
        }
      ],
      "stateMutability": "view",
      "type": "function"
    },
    {
      "inputs": [
        {
          "internalType": "address",
          "name": "",
          "type": "address"
        }
      ],
      "name": "querySubmitted",
      "outputs": [
        {
          "internalType": "bool",
          "name": "",
          "type": "bool"
        }
      ],
      "stateMutability": "view",
      "type": "function"
    },
    {
      "inputs": [],
      "name": "renounceOwnership",
      "outputs": [],
      "stateMutability": "nonpayable",
      "type": "function"
    },
    {
      "inputs": [],
      "name": "token",
      "outputs": [
        {
          "internalType": "contract IERC20",
          "name": "",
          "type": "address"
        }
      ],
      "stateMutability": "view",
      "type": "function"
    },
    {
      "inputs": [
        {
          "internalType": "address",
          "name": "newOwner",
          "type": "address"
        }
      ],
      "name": "transferOwnership",
      "outputs": [],
      "stateMutability": "nonpayable",
      "type": "function"
    },
    {
      "inputs": [
        {
          "internalType": "address",
          "name": "_token",
          "type": "address"
        }
      ],
      "name": "updateAirdropToken",
      "outputs": [],
      "stateMutability": "nonpayable",
      "type": "function"
    },
    {
      "inputs": [
        {
          "internalType": "address",
          "name": "_axiomCallbackCallerAddr",
          "type": "address"
        }
      ],
      "name": "updateCallbackCallerAddr",
      "outputs": [],
      "stateMutability": "nonpayable",
      "type": "function"
    },
    {
      "inputs": [
        {
          "internalType": "bytes32",
          "name": "_axiomCallbackQuerySchema",
          "type": "bytes32"
        }
      ],
      "name": "updateCallbackQuerySchema",
      "outputs": [],
      "stateMutability": "nonpayable",
      "type": "function"
    }
  ],
  "bytecode": {
    "object": "0x60a06040523480156200001157600080fd5b5060405162001cec38038062001cec8339810160408190526200003491620000e3565b6001600160a01b0383166080526200004c3362000093565b600080546001600160401b03909316600160a01b02600160a01b600160e01b031990931692909217909155600180546001600160a01b031916301790556002555062000141565b600080546001600160a01b038381166001600160a01b0319831681178455604051919092169283917f8be0079c531659141344cd1fd0a4f28419497f9722a3daafe3b4186f6b6457e09190a35050565b600080600060608486031215620000f957600080fd5b83516001600160a01b03811681146200011157600080fd5b60208501519093506001600160401b03811681146200012f57600080fd5b80925050604084015190509250925092565b608051611b816200016b6000396000818161018e015281816105a101526106a10152611b816000f3fe6080604052600436106100fe5760003560e01c8063863af3cf11610095578063cd1cd72511610064578063cd1cd725146102f3578063da8c7e7a14610317578063f2fde38b14610337578063f790c7eb14610357578063fc0c546a1461038b57600080fd5b8063863af3cf1461025d5780638da5cb5b14610285578063a34c1eb4146102a3578063ab72fc09146102c357600080fd5b806345e1ef8d116100d157806345e1ef8d146101c857806351b17b29146101e8578063715018a61461020857806373b2e80e1461021d57600080fd5b8063034606e0146101035780630a50ec5c146101255780631b50f734146101695780632a75d3be1461017c575b600080fd5b34801561010f57600080fd5b5061012361011e3660046114fd565b6103ab565b005b34801561013157600080fd5b5060005461014c90600160a01b90046001600160401b031681565b6040516001600160401b0390911681526020015b60405180910390f35b610123610177366004611516565b6103ef565b34801561018857600080fd5b506101b07f000000000000000000000000000000000000000000000000000000000000000081565b6040516001600160a01b039091168152602001610160565b3480156101d457600080fd5b506001546101b0906001600160a01b031681565b3480156101f457600080fd5b506101236102033660046115d0565b610696565b34801561021457600080fd5b50610123610798565b34801561022957600080fd5b5061024d6102383660046116a6565b60046020526000908152604090205460ff1681565b6040519015158152602001610160565b34801561026957600080fd5b506101b0733fc91a3afd70395cd496c647d5a6cc9d4b2b7fad81565b34801561029157600080fd5b506000546001600160a01b03166101b0565b3480156102af57600080fd5b506101236102be3660046116a6565b6107ac565b3480156102cf57600080fd5b5061024d6102de3660046116a6565b60036020526000908152604090205460ff1681565b3480156102ff57600080fd5b5061030960025481565b604051908152602001610160565b34801561032357600080fd5b506101236103323660046116a6565b610802565b34801561034357600080fd5b506101236103523660046116a6565b610858565b34801561036357600080fd5b506103097fc42079f94a6350d7e6235f29174924f928cc2ac818eb64fed8004e115fbcca6781565b34801561039757600080fd5b506005546101b0906001600160a01b031681565b6103b36108d1565b60028190556040518181527f215a17e0015e11cebc3087027513f0b70572c3b3341a76ef38fbcbbb8193c6ae906020015b60405180910390a150565b3360009081526004602052604090205460ff16156104625760405162461bcd60e51b815260206004820152602560248201527f557365722068617320616c726561647920636c61696d6564207468697320616960448201526407264726f760dc1b60648201526084015b60405180910390fd5b3360009081526003602052604090205460ff16156104c25760405162461bcd60e51b815260206004820181905260248201527f51756572792068617320616c7265616479206265656e207375626d69747465646044820152606401610459565b60006104d160608301836116c3565b6104df9060608101906116e3565b8101906104ec91906116a6565b90506001600160a01b038116331461056e576040805162461bcd60e51b81526020600482015260248101919091527f416464726573732073656e7420696e2063616c6c6261636b457874726144617460448201527f61206d757374206265207468652073616d65206173207468652063616c6c65726064820152608401610459565b61058361057e60c08401846116e3565b61092b565b3360009081526003602090815260408220805460ff191660011790557f00000000000000000000000000000000000000000000000000000000000000006001600160a01b03169063ea53dce49034906105de90870187611729565b60208701356105f06040890189611744565b6105fd60608a018a6116c3565b61060d60a08b0160808c01611729565b61061d60c08c0160a08d0161175a565b61062a60c08d018d6116e3565b6040518a63ffffffff1660e01b815260040161064d9897969594939291906118aa565b60206040518083038185885af115801561066b573d6000803e3d6000fd5b50505050506040513d601f19601f8201168201806040525081019061069091906119aa565b50505050565b336001600160a01b037f000000000000000000000000000000000000000000000000000000000000000016146107285760405162461bcd60e51b815260206004820152603160248201527f4178696f6d5632436c69656e743a2063616c6c6572206d757374206265206178604482015270696f6d563251756572794164647265737360781b6064820152608401610459565b6040516001600160a01b0388168152859087906001600160401b038b16907f8c4d7c8c39bd8567a2e06cd74f2e95db120e4aeeb5092fca49fb9f3ea13f0fc19060200160405180910390a461077e888888610d1b565b61078e8888888888888888610e41565b5050505050505050565b6107a06108d1565b6107aa6000611255565b565b6107b46108d1565b600580546001600160a01b0319166001600160a01b0383169081179091556040519081527f3d74e308a5601bae6228e9545413c210aad9d550ccd35b1f55805a9bd2cc6dfb906020016103e4565b61080a6108d1565b600180546001600160a01b0319166001600160a01b0383169081179091556040519081527f1b1580fc32a58bb9d566344e104e66168ade97b1c102a2f356c03fc9d6c3a87f906020016103e4565b6108606108d1565b6001600160a01b0381166108c55760405162461bcd60e51b815260206004820152602660248201527f4f776e61626c653a206e6577206f776e657220697320746865207a65726f206160448201526564647265737360d01b6064820152608401610459565b6108ce81611255565b50565b6000546001600160a01b031633146107aa5760405162461bcd60e51b815260206004820181905260248201527f4f776e61626c653a2063616c6c6572206973206e6f7420746865206f776e65726044820152606401610459565b600036600061093a85856112a5565b925092509250600036600061094f8585611332565b92509250925060003660006109648585611332565b92509250925060003660006109798585611332565b925092509250600061098b838361144a565b50508d519091506001600160401b03164614610a1e5760405162461bcd60e51b815260206004820152604660248201527f44617461517565727920736f75726365436861696e496420626520746865207360448201527f616d6520617320746865206465706c6f79656420636f6e7472616374277320636064820152651a185a5b925960d21b608482015260a401610459565b895161ffff16600514610a435760405162461bcd60e51b8152600401610459906119c3565b865161ffff16600514610a685760405162461bcd60e51b8152600401610459906119c3565b835161ffff16600514610a8d5760405162461bcd60e51b8152600401610459906119c3565b805161ffff16600414610ae25760405162461bcd60e51b815260206004820152601c60248201527f74785371302e737562717565727954797065206d7573742062652034000000006044820152606401610459565b602080880151604051610af9920190815260200190565b604051602081830303815290604052805190602001208a60200151604051602001610b2691815260200190565b6040516020818303038152906040528051906020012014610b9a5760405162461bcd60e51b815260206004820152602860248201527f74784861736865735b302c315d20666f722064617461517565727920646f206e6044820152670dee840dac2e8c6d60c31b6064820152608401610459565b602080850151604051610bb1920190815260200190565b604051602081830303815290604052805190602001208760200151604051602001610bde91815260200190565b6040516020818303038152906040528051906020012014610c525760405162461bcd60e51b815260206004820152602860248201527f74784861736865735b312c325d20666f722064617461517565727920646f206e6044820152670dee840dac2e8c6d60c31b6064820152608401610459565b602080820151604051610c69920190815260200190565b604051602081830303815290604052805190602001208460200151604051602001610c9691815260200190565b6040516020818303038152906040528051906020012014610d0a5760405162461bcd60e51b815260206004820152602860248201527f74784861736865735b332c345d20666f722064617461517565727920646f206e6044820152670dee840dac2e8c6d60c31b6064820152608401610459565b505050505050505050505050505050565b6000546001600160401b03848116600160a01b9092041614610d8e5760405162461bcd60e51b815260206004820152602660248201527f4178696f6d56323a2063616c6c657220736f75726365436861696e4964206d696044820152650e6dac2e8c6d60d31b6064820152608401610459565b6001546001600160a01b03838116911614610deb5760405162461bcd60e51b815260206004820181905260248201527f4178696f6d56323a2063616c6c65722061646472657373206d69736d617463686044820152606401610459565b6002548114610e3c5760405162461bcd60e51b815260206004820152601e60248201527f4178696f6d56323a20717565727920736368656d61206d69736d6174636800006044820152606401610459565b505050565b6000610e4f828401846116a6565b9050600085856000818110610e6657610e66611a04565b905060200201359050600086866001818110610e8457610e84611a04565b9050602002013560001c9050600087876002818110610ea557610ea5611a04565b9050602002013560001c9050600088886003818110610ec657610ec6611a04565b60200291909101359150507fc42079f94a6350d7e6235f29174924f928cc2ac818eb64fed8004e115fbcca678414610f6f576001600160a01b03851660008181526003602052604090819020805460ff1916905551600080516020611b2c83398151915290610f5d90602080825260149082015273496e76616c6964206576656e7420736368656d6160601b604082015260600190565b60405180910390a2505050505061078e565b846001600160a01b0316836001600160a01b031614610ff6576001600160a01b03851660008181526003602052604090819020805460ff1916905551600080516020611b2c83398151915290610f5d906020808252601e908201527f496e76616c69642075736572206164647265737320666f72206576656e740000604082015260600190565b628954408263ffffffff16101561109b576001600160a01b03851660008181526003602052604090819020805460ff1916905551600080516020611b2c83398151915290610f5d906020808252603f908201527f426c6f636b206e756d62657220666f72207472616e73616374696f6e2072656360408201527f65697074206d7573742062652039303030303030206f72206772656174657200606082015260800190565b6001600160a01b038116733fc91a3afd70395cd496c647d5a6cc9d4b2b7fad14611160576001600160a01b03851660008181526003602052604090819020805460ff1916905551600080516020611b2c83398151915290610f5d9060208082526044908201527f5472616e73616374696f6e2060746f602061646472657373206973206e6f742060408201527f74686520556e697377617020556e6976657273616c20526f75746572206164646060820152637265737360e01b608082015260a00190565b6001600160a01b03858116600081815260046020819052604091829020805460ff19166001179055600554915163a9059cbb60e01b81529081019290925268056bc75e2d631000006024830181905292169063a9059cbb906044016020604051808303816000875af11580156111da573d6000803e3d6000fd5b505050506040513d601f19601f820116820180604052508101906111fe9190611a1a565b508a866001600160a01b03167fb6cdd515ae6bc7c835f5b9b67a78fe370d2fa71ebb6c7a49595cb3f84988d35e838d8d60405161123d93929190611a3c565b60405180910390a35050505050505050505050505050565b600080546001600160a01b038381166001600160a01b0319831681178455604051919092169283917f8be0079c531659141344cd1fd0a4f28419497f9722a3daafe3b4186f6b6457e09190a35050565b6040805180820190915260008082526020820152366000806112ca6008828789611a56565b6112d391611a80565b60c01c905060006112e8600a6008888a611a56565b6112f191611ab0565b604080518082019091526001600160401b038416815260f09190911c60208201819052915061132387600a818b611a56565b94509450945050509250925092565b6040805160a0810182526000808252602082018190529181018290526060810182905260808101919091523660008061136e6002828789611a56565b61137791611ab0565b60f01c9050600061138c60226002888a611a56565b61139591611ade565b905060006113a760266022898b611a56565b6113b091611afd565b60e01c905060006113c5602a60268a8c611a56565b6113ce91611afd565b60e01c905060006113e3604a602a8b8d611a56565b6113ec91611ade565b90506040518060a001604052808661ffff1681526020018581526020018463ffffffff1681526020018363ffffffff168152602001828152508a8a604a90809261143893929190611a56565b97509750975050505050509250925092565b6040805160608101825260008082526020820181905291810191909152366000806114786002828789611a56565b61148191611ab0565b60f01c9050600061149660226002888a611a56565b61149f91611ade565b905060006114b160266022898b611a56565b6114ba91611afd565b6040805160608101825261ffff861681526020810185905260e09290921c90820181905291506114ed886026818c611a56565b9550955095505050509250925092565b60006020828403121561150f57600080fd5b5035919050565b60006020828403121561152857600080fd5b81356001600160401b0381111561153e57600080fd5b820160e0818503121561155057600080fd5b9392505050565b80356001600160401b038116811461156e57600080fd5b919050565b6001600160a01b03811681146108ce57600080fd5b60008083601f84011261159a57600080fd5b5081356001600160401b038111156115b157600080fd5b6020830191508360208285010111156115c957600080fd5b9250929050565b60008060008060008060008060c0898b0312156115ec57600080fd5b6115f589611557565b9750602089013561160581611573565b9650604089013595506060890135945060808901356001600160401b038082111561162f57600080fd5b818b0191508b601f83011261164357600080fd5b81358181111561165257600080fd5b8c60208260051b850101111561166757600080fd5b6020830196508095505060a08b013591508082111561168557600080fd5b506116928b828c01611588565b999c989b5096995094979396929594505050565b6000602082840312156116b857600080fd5b813561155081611573565b60008235607e198336030181126116d957600080fd5b9190910192915050565b6000808335601e198436030181126116fa57600080fd5b8301803591506001600160401b0382111561171457600080fd5b6020019150368190038213156115c957600080fd5b60006020828403121561173b57600080fd5b61155082611557565b60008235605e198336030181126116d957600080fd5b60006020828403121561176c57600080fd5b813563ffffffff8116811461155057600080fd5b803560ff8116811461156e57600080fd5b81835260006001600160fb1b038311156117aa57600080fd5b8260051b80836020870137939093016020019392505050565b6000808335601e198436030181126117da57600080fd5b83016020810192503590506001600160401b038111156117f957600080fd5b8036038213156115c957600080fd5b81835281816020850137506000828201602090810191909152601f909101601f19169091010190565b6000813561183e81611573565b6001600160a01b0316835260208201356001600160e01b0319811680821461186557600080fd5b60208501525060ff61187960408401611780565b16604084015261188c60608301836117c3565b608060608601526118a1608086018284611808565b95945050505050565b60006001600160401b03808b16835289602084015260e0604084015260ff6118d18a611780565b1660e08401526020890135601e198a36030181126118ee57600080fd5b89016020810190358281111561190357600080fd5b8060051b360382131561191557600080fd5b606061010086015261192c61014086018284611791565b9250505061193d60408a018a6117c3565b84830360df1901610120860152611955838284611808565b92505050828103606084015261196b8189611831565b6001600160401b0388166080850152905063ffffffff861660a084015282810360c084015261199b818587611808565b9b9a5050505050505050505050565b6000602082840312156119bc57600080fd5b5051919050565b60208082526021908201527f726563656970745371302e737562717565727954797065206d757374206265206040820152603560f81b606082015260800190565b634e487b7160e01b600052603260045260246000fd5b600060208284031215611a2c57600080fd5b8151801515811461155057600080fd5b8381526040602082015260006118a1604083018486611791565b60008085851115611a6657600080fd5b83861115611a7357600080fd5b5050820193919092039150565b6001600160c01b03198135818116916008851015611aa85780818660080360031b1b83161692505b505092915050565b6001600160f01b03198135818116916002851015611aa85760029490940360031b84901b1690921692915050565b80356020831015611af757600019602084900360031b1b165b92915050565b6001600160e01b03198135818116916004851015611aa85760049490940360031b84901b169092169291505056fe8031153b90b84d8fb7737520cd5205a4168384868eee482f856fc78e8973a8f7a26469706673582212204a350d3118c08adecd020311170d8ba7713fcdeaede9dc020bc2a10b381da1d064736f6c63430008130033",
    "linkReferences": {}
  },
  "methodIdentifiers": {
    "SWAP_EVENT_SCHEMA()": "f790c7eb",
    "UNI_UNIV_ROUTER_ADDR()": "863af3cf",
    "axiomCallbackCallerAddr()": "45e1ef8d",
    "axiomCallbackQuerySchema()": "cd1cd725",
    "axiomV2Callback(uint64,address,bytes32,bytes32,bytes32[],bytes)": "51b17b29",
    "axiomV2QueryAddress()": "2a75d3be",
    "callbackSourceChainId()": "0a50ec5c",
    "claimAirdrop((uint64,bytes32,(uint8,bytes32[],bytes),(address,bytes4,uint8,bytes),uint64,uint32,bytes))": "1b50f734",
    "hasClaimed(address)": "73b2e80e",
    "owner()": "8da5cb5b",
    "querySubmitted(address)": "ab72fc09",
    "renounceOwnership()": "715018a6",
    "token()": "fc0c546a",
    "transferOwnership(address)": "f2fde38b",
    "updateAirdropToken(address)": "a34c1eb4",
    "updateCallbackCallerAddr(address)": "da8c7e7a",
    "updateCallbackQuerySchema(bytes32)": "034606e0"
  },
  "id": 25
}