{
  "abi": [
    {
      "inputs": [
        {
          "internalType": "address",
          "name": "_axiomV2QueryAddress",
          "type": "address"
        },
        {
          "internalType": "uint64",
          "name": "_callbackSourceChainId",
          "type": "uint64"
        },
        {
          "internalType": "bytes32",
          "name": "_axiomCallbackQuerySchema",
          "type": "bytes32"
        }
      ],
      "stateMutability": "nonpayable",
      "type": "constructor"
    },
    {
      "anonymous": false,
      "inputs": [
        {
          "indexed": false,
          "internalType": "address",
          "name": "token",
          "type": "address"
        }
      ],
      "name": "AirdropTokenAddressUpdated",
      "type": "event"
    },
    {
      "anonymous": false,
      "inputs": [
        {
          "indexed": false,
          "internalType": "address",
          "name": "axiomCallbackCallerAddr",
          "type": "address"
        }
      ],
      "name": "AxiomCallbackCallerAddrUpdated",
      "type": "event"
    },
    {
      "anonymous": false,
      "inputs": [
        {
          "indexed": false,
          "internalType": "bytes32",
          "name": "axiomCallbackQuerySchema",
          "type": "bytes32"
        }
      ],
      "name": "AxiomCallbackQuerySchemaUpdated",
      "type": "event"
    },
    {
      "anonymous": false,
      "inputs": [
        {
          "indexed": true,
          "internalType": "uint64",
          "name": "sourceChainId",
          "type": "uint64"
        },
        {
          "indexed": false,
          "internalType": "address",
          "name": "callerAddr",
          "type": "address"
        },
        {
          "indexed": true,
          "internalType": "bytes32",
          "name": "querySchema",
          "type": "bytes32"
        },
        {
          "indexed": true,
          "internalType": "uint256",
          "name": "queryId",
          "type": "uint256"
        }
      ],
      "name": "AxiomV2Call",
      "type": "event"
    },
    {
      "anonymous": false,
      "inputs": [
        {
          "indexed": true,
          "internalType": "address",
          "name": "user",
          "type": "address"
        },
        {
          "indexed": true,
          "internalType": "uint256",
          "name": "queryId",
          "type": "uint256"
        },
        {
          "indexed": false,
          "internalType": "uint256",
          "name": "numTokens",
          "type": "uint256"
        },
        {
          "indexed": false,
          "internalType": "bytes32[]",
          "name": "axiomResults",
          "type": "bytes32[]"
        }
      ],
      "name": "ClaimAirdrop",
      "type": "event"
    },
    {
      "anonymous": false,
      "inputs": [
        {
          "indexed": true,
          "internalType": "address",
          "name": "user",
          "type": "address"
        },
        {
          "indexed": false,
          "internalType": "string",
          "name": "error",
          "type": "string"
        }
      ],
      "name": "ClaimAirdropError",
      "type": "event"
    },
    {
      "anonymous": false,
      "inputs": [
        {
          "indexed": true,
          "internalType": "address",
          "name": "previousOwner",
          "type": "address"
        },
        {
          "indexed": true,
          "internalType": "address",
          "name": "newOwner",
          "type": "address"
        }
      ],
      "name": "OwnershipTransferred",
      "type": "event"
    },
    {
      "inputs": [],
      "name": "SWAP_EVENT_SCHEMA",
      "outputs": [
        {
          "internalType": "bytes32",
          "name": "",
          "type": "bytes32"
        }
      ],
      "stateMutability": "view",
      "type": "function"
    },
    {
      "inputs": [],
      "name": "UNI_UNIV_ROUTER_ADDR",
      "outputs": [
        {
          "internalType": "address",
          "name": "",
          "type": "address"
        }
      ],
      "stateMutability": "view",
      "type": "function"
    },
    {
      "inputs": [],
      "name": "axiomCallbackCallerAddr",
      "outputs": [
        {
          "internalType": "address",
          "name": "",
          "type": "address"
        }
      ],
      "stateMutability": "view",
      "type": "function"
    },
    {
      "inputs": [],
      "name": "axiomCallbackQuerySchema",
      "outputs": [
        {
          "internalType": "bytes32",
          "name": "",
          "type": "bytes32"
        }
      ],
      "stateMutability": "view",
      "type": "function"
    },
    {
      "inputs": [
        {
          "internalType": "uint64",
          "name": "sourceChainId",
          "type": "uint64"
        },
        {
          "internalType": "address",
          "name": "callerAddr",
          "type": "address"
        },
        {
          "internalType": "bytes32",
          "name": "querySchema",
          "type": "bytes32"
        },
        {
          "internalType": "uint256",
          "name": "queryId",
          "type": "uint256"
        },
        {
          "internalType": "bytes32[]",
          "name": "axiomResults",
          "type": "bytes32[]"
        },
        {
          "internalType": "bytes",
          "name": "callbackExtraData",
          "type": "bytes"
        }
      ],
      "name": "axiomV2Callback",
      "outputs": [],
      "stateMutability": "nonpayable",
      "type": "function"
    },
    {
      "inputs": [],
      "name": "axiomV2QueryAddress",
      "outputs": [
        {
          "internalType": "address",
          "name": "",
          "type": "address"
        }
      ],
      "stateMutability": "view",
      "type": "function"
    },
    {
      "inputs": [],
      "name": "callbackSourceChainId",
      "outputs": [
        {
          "internalType": "uint64",
          "name": "",
          "type": "uint64"
        }
      ],
      "stateMutability": "view",
      "type": "function"
    },
    {
      "inputs": [
        {
          "components": [
            {
              "internalType": "uint64",
              "name": "sourceChainId",
              "type": "uint64"
            },
            {
              "internalType": "bytes32",
              "name": "dataQueryHash",
              "type": "bytes32"
            },
            {
              "components": [
                {
                  "internalType": "uint8",
                  "name": "k",
                  "type": "uint8"
                },
                {
                  "internalType": "uint16",
                  "name": "resultLen",
                  "type": "uint16"
                },
                {
                  "internalType": "bytes32[]",
                  "name": "vkey",
                  "type": "bytes32[]"
                },
                {
                  "internalType": "bytes",
                  "name": "computeProof",
                  "type": "bytes"
                }
              ],
              "internalType": "struct IAxiomV2Query.AxiomV2ComputeQuery",
              "name": "computeQuery",
              "type": "tuple"
            },
            {
              "components": [
                {
                  "internalType": "address",
                  "name": "target",
                  "type": "address"
                },
                {
                  "internalType": "bytes",
                  "name": "extraData",
                  "type": "bytes"
                }
              ],
              "internalType": "struct IAxiomV2Query.AxiomV2Callback",
              "name": "callback",
              "type": "tuple"
            },
            {
              "internalType": "bytes32",
              "name": "userSalt",
              "type": "bytes32"
            },
            {
              "internalType": "uint64",
              "name": "maxFeePerGas",
              "type": "uint64"
            },
            {
              "internalType": "uint32",
              "name": "callbackGasLimit",
              "type": "uint32"
            },
            {
              "internalType": "address",
              "name": "refundee",
              "type": "address"
            },
            {
              "internalType": "bytes",
              "name": "dataQuery",
              "type": "bytes"
            }
          ],
          "internalType": "struct IAxiomV2Input.AxiomV2QueryData",
          "name": "axiomData",
          "type": "tuple"
        }
      ],
      "name": "claimAirdrop",
      "outputs": [],
      "stateMutability": "payable",
      "type": "function"
    },
    {
      "inputs": [
        {
          "internalType": "address",
          "name": "",
          "type": "address"
        }
      ],
      "name": "hasClaimed",
      "outputs": [
        {
          "internalType": "bool",
          "name": "",
          "type": "bool"
        }
      ],
      "stateMutability": "view",
      "type": "function"
    },
    {
      "inputs": [],
      "name": "owner",
      "outputs": [
        {
          "internalType": "address",
          "name": "",
          "type": "address"
        }
      ],
      "stateMutability": "view",
      "type": "function"
    },
    {
      "inputs": [
        {
          "internalType": "address",
          "name": "",
          "type": "address"
        }
      ],
      "name": "querySubmitted",
      "outputs": [
        {
          "internalType": "bool",
          "name": "",
          "type": "bool"
        }
      ],
      "stateMutability": "view",
      "type": "function"
    },
    {
      "inputs": [],
      "name": "renounceOwnership",
      "outputs": [],
      "stateMutability": "nonpayable",
      "type": "function"
    },
    {
      "inputs": [],
      "name": "token",
      "outputs": [
        {
          "internalType": "contract IERC20",
          "name": "",
          "type": "address"
        }
      ],
      "stateMutability": "view",
      "type": "function"
    },
    {
      "inputs": [
        {
          "internalType": "address",
          "name": "newOwner",
          "type": "address"
        }
      ],
      "name": "transferOwnership",
      "outputs": [],
      "stateMutability": "nonpayable",
      "type": "function"
    },
    {
      "inputs": [
        {
          "internalType": "address",
          "name": "_token",
          "type": "address"
        }
      ],
      "name": "updateAirdropToken",
      "outputs": [],
      "stateMutability": "nonpayable",
      "type": "function"
    },
    {
      "inputs": [
        {
          "internalType": "address",
          "name": "_axiomCallbackCallerAddr",
          "type": "address"
        }
      ],
      "name": "updateCallbackCallerAddr",
      "outputs": [],
      "stateMutability": "nonpayable",
      "type": "function"
    },
    {
      "inputs": [
        {
          "internalType": "bytes32",
          "name": "_axiomCallbackQuerySchema",
          "type": "bytes32"
        }
      ],
      "name": "updateCallbackQuerySchema",
      "outputs": [],
      "stateMutability": "nonpayable",
      "type": "function"
    }
  ],
  "bytecode": {
    "object": "0x60a06040523480156200001157600080fd5b5060405162001fb138038062001fb18339810160408190526200003491620000e3565b6001600160a01b0383166080526200004c3362000093565b600080546001600160401b03909316600160a01b02600160a01b600160e01b031990931692909217909155600180546001600160a01b031916301790556002555062000141565b600080546001600160a01b038381166001600160a01b0319831681178455604051919092169283917f8be0079c531659141344cd1fd0a4f28419497f9722a3daafe3b4186f6b6457e09190a35050565b600080600060608486031215620000f957600080fd5b83516001600160a01b03811681146200011157600080fd5b60208501519093506001600160401b03811681146200012f57600080fd5b80925050604084015190509250925092565b608051611e466200016b6000396000818161017b015281816105a001526107790152611e466000f3fe6080604052600436106100fe5760003560e01c80638da5cb5b11610095578063da8c7e7a11610064578063da8c7e7a146102f7578063dc5cd53c14610317578063f2fde38b14610337578063f790c7eb14610357578063fc0c546a1461038b57600080fd5b80638da5cb5b14610265578063a34c1eb414610283578063ab72fc09146102a3578063cd1cd725146102d357600080fd5b806345e1ef8d116100d157806345e1ef8d146101c8578063715018a6146101e857806373b2e80e146101fd578063863af3cf1461023d57600080fd5b8063034606e0146101035780630a50ec5c146101255780632a75d3be146101695780633c8d6f18146101b5575b600080fd5b34801561010f57600080fd5b5061012361011e3660046117ac565b6103ab565b005b34801561013157600080fd5b5060005461014c90600160a01b90046001600160401b031681565b6040516001600160401b0390911681526020015b60405180910390f35b34801561017557600080fd5b5061019d7f000000000000000000000000000000000000000000000000000000000000000081565b6040516001600160a01b039091168152602001610160565b6101236101c33660046117c5565b6103ef565b3480156101d457600080fd5b5060015461019d906001600160a01b031681565b3480156101f457600080fd5b506101236106ae565b34801561020957600080fd5b5061022d61021836600461181c565b60046020526000908152604090205460ff1681565b6040519015158152602001610160565b34801561024957600080fd5b5061019d733fc91a3afd70395cd496c647d5a6cc9d4b2b7fad81565b34801561027157600080fd5b506000546001600160a01b031661019d565b34801561028f57600080fd5b5061012361029e36600461181c565b6106c2565b3480156102af57600080fd5b5061022d6102be36600461181c565b60036020526000908152604090205460ff1681565b3480156102df57600080fd5b506102e960025481565b604051908152602001610160565b34801561030357600080fd5b5061012361031236600461181c565b610718565b34801561032357600080fd5b5061012361033236600461189d565b61076e565b34801561034357600080fd5b5061012361035236600461181c565b610870565b34801561036357600080fd5b506102e97fc42079f94a6350d7e6235f29174924f928cc2ac818eb64fed8004e115fbcca6781565b34801561039757600080fd5b5060055461019d906001600160a01b031681565b6103b36108e9565b60028190556040518181527f215a17e0015e11cebc3087027513f0b70572c3b3341a76ef38fbcbbb8193c6ae906020015b60405180910390a150565b3360009081526004602052604090205460ff16156104625760405162461bcd60e51b815260206004820152602560248201527f557365722068617320616c726561647920636c61696d6564207468697320616960448201526407264726f760dc1b60648201526084015b60405180910390fd5b3360009081526003602052604090205460ff16156104c25760405162461bcd60e51b815260206004820181905260248201527f51756572792068617320616c7265616479206265656e207375626d69747465646044820152606401610459565b60006104d16060830183611973565b6104df906020810190611993565b8101906104ec919061181c565b90506001600160a01b038116331461056c5760405162461bcd60e51b815260206004820152603860248201527f416464726573732073656e7420696e20657874726144617461206d757374206260448201527f65207468652073616d65206173207468652063616c6c657200000000000000006064820152608401610459565b61058261057d610100840184611993565b610943565b3360009081526003602090815260408220805460ff191660011790557f00000000000000000000000000000000000000000000000000000000000000006001600160a01b03169063ba1d7f199034906105dd908701876119d9565b60208701356105ef60408901896119f4565b6105fc60608a018a611973565b60808a013561061160c08c0160a08d016119d9565b61062160e08d0160c08e01611a0a565b6106326101008e0160e08f0161181c565b6106406101008f018f611993565b6040518c63ffffffff1660e01b81526004016106659a99989796959493929190611b5b565b60206040518083038185885af1158015610683573d6000803e3d6000fd5b50505050506040513d601f19601f820116820180604052508101906106a89190611c6f565b50505050565b6106b66108e9565b6106c06000610f58565b565b6106ca6108e9565b600580546001600160a01b0319166001600160a01b0383169081179091556040519081527f3d74e308a5601bae6228e9545413c210aad9d550ccd35b1f55805a9bd2cc6dfb906020016103e4565b6107206108e9565b600180546001600160a01b0319166001600160a01b0383169081179091556040519081527f1b1580fc32a58bb9d566344e104e66168ade97b1c102a2f356c03fc9d6c3a87f906020016103e4565b336001600160a01b037f000000000000000000000000000000000000000000000000000000000000000016146108005760405162461bcd60e51b815260206004820152603160248201527f4178696f6d5632436c69656e743a2063616c6c6572206d757374206265206178604482015270696f6d563251756572794164647265737360781b6064820152608401610459565b6040516001600160a01b0388168152859087906001600160401b038b16907fc6d3309bf887e48755c9a455e332b73641b6bf2fd018e3b608bf21676c4c0af59060200160405180910390a4610856888888610fa8565b61086688888888888888886110ce565b5050505050505050565b6108786108e9565b6001600160a01b0381166108dd5760405162461bcd60e51b815260206004820152602660248201527f4f776e61626c653a206e6577206f776e657220697320746865207a65726f206160448201526564647265737360d01b6064820152608401610459565b6108e681610f58565b50565b6000546001600160a01b031633146106c05760405162461bcd60e51b815260206004820181905260248201527f4f776e61626c653a2063616c6c6572206973206e6f7420746865206f776e65726044820152606401610459565b600036600061095285856114e2565b9250925092506000366000610967858561156f565b925092509250600036600061097c858561156f565b9250925092506000366000610991858561156f565b92509250925060006109a383836116c0565b50508d519091506001600160401b03164614610a365760405162461bcd60e51b815260206004820152604660248201527f44617461517565727920736f75726365436861696e496420626520746865207360448201527f616d6520617320746865206465706c6f79656420636f6e7472616374277320636064820152651a185a5b925960d21b608482015260a401610459565b895161ffff16600514610a5b5760405162461bcd60e51b815260040161045990611c88565b865161ffff16600514610a805760405162461bcd60e51b815260040161045990611c88565b835161ffff16600514610aa55760405162461bcd60e51b815260040161045990611c88565b805161ffff16600414610afa5760405162461bcd60e51b815260206004820152601c60248201527f74785371302e737562717565727954797065206d7573742062652034000000006044820152606401610459565b602080880151604051610b19920163ffffffff91909116815260200190565b60408051601f1981840301815282825280516020918201208d82015163ffffffff169184019190915291016040516020818303038152906040528051906020012014610bbb5760405162461bcd60e51b815260206004820152602b60248201527f626c6f636b4e756d6265725b302c315d20666f7220646174615175657279206460448201526a0de40dcdee840dac2e8c6d60ab1b6064820152608401610459565b602080850151604051610bda920163ffffffff91909116815260200190565b60408051601f1981840301815282825280516020918201208a82015163ffffffff169184019190915291016040516020818303038152906040528051906020012014610c7c5760405162461bcd60e51b815260206004820152602b60248201527f626c6f636b4e756d6265725b312c325d20666f7220646174615175657279206460448201526a0de40dcdee840dac2e8c6d60ab1b6064820152608401610459565b602080820151604051610c9b920163ffffffff91909116815260200190565b60408051601f1981840301815282825280516020918201208782015163ffffffff169184019190915291016040516020818303038152906040528051906020012014610d3d5760405162461bcd60e51b815260206004820152602b60248201527f626c6f636b4e756d6265725b332c345d20666f7220646174615175657279206460448201526a0de40dcdee840dac2e8c6d60ab1b6064820152608401610459565b604080880151815161ffff90911660208201520160408051601f1981840301815282825280516020918201208d83015161ffff169184019190915291016040516020818303038152906040528051906020012014610deb5760405162461bcd60e51b815260206004820152602560248201527f74784964785b302c315d20666f722064617461517565727920646f206e6f74206044820152640dac2e8c6d60db1b6064820152608401610459565b604080850151815161ffff90911660208201520160408051601f1981840301815282825280516020918201208a83015161ffff169184019190915291016040516020818303038152906040528051906020012014610e995760405162461bcd60e51b815260206004820152602560248201527f74784964785b312c325d20666f722064617461517565727920646f206e6f74206044820152640dac2e8c6d60db1b6064820152608401610459565b604080820151815161ffff90911660208201520160408051601f1981840301815282825280516020918201208783015161ffff169184019190915291016040516020818303038152906040528051906020012014610f475760405162461bcd60e51b815260206004820152602560248201527f74784964785b332c345d20666f722064617461517565727920646f206e6f74206044820152640dac2e8c6d60db1b6064820152608401610459565b505050505050505050505050505050565b600080546001600160a01b038381166001600160a01b0319831681178455604051919092169283917f8be0079c531659141344cd1fd0a4f28419497f9722a3daafe3b4186f6b6457e09190a35050565b6000546001600160401b03848116600160a01b909204161461101b5760405162461bcd60e51b815260206004820152602660248201527f4178696f6d56323a2063616c6c657220736f75726365436861696e4964206d696044820152650e6dac2e8c6d60d31b6064820152608401610459565b6001546001600160a01b038381169116146110785760405162461bcd60e51b815260206004820181905260248201527f4178696f6d56323a2063616c6c65722061646472657373206d69736d617463686044820152606401610459565b60025481146110c95760405162461bcd60e51b815260206004820152601e60248201527f4178696f6d56323a20717565727920736368656d61206d69736d6174636800006044820152606401610459565b505050565b60006110dc8284018461181c565b90506000858560008181106110f3576110f3611cc9565b90506020020135905060008686600181811061111157611111611cc9565b9050602002013560001c905060008787600281811061113257611132611cc9565b9050602002013560001c905060008888600381811061115357611153611cc9565b60200291909101359150507fc42079f94a6350d7e6235f29174924f928cc2ac818eb64fed8004e115fbcca6784146111fc576001600160a01b03851660008181526003602052604090819020805460ff1916905551600080516020611df1833981519152906111ea90602080825260149082015273496e76616c6964206576656e7420736368656d6160601b604082015260600190565b60405180910390a25050505050610866565b846001600160a01b0316836001600160a01b031614611283576001600160a01b03851660008181526003602052604090819020805460ff1916905551600080516020611df1833981519152906111ea906020808252601e908201527f496e76616c69642075736572206164647265737320666f72206576656e740000604082015260600190565b628954408263ffffffff161015611328576001600160a01b03851660008181526003602052604090819020805460ff1916905551600080516020611df1833981519152906111ea906020808252603f908201527f426c6f636b206e756d62657220666f72207472616e73616374696f6e2072656360408201527f65697074206d7573742062652039303030303030206f72206772656174657200606082015260800190565b6001600160a01b038116733fc91a3afd70395cd496c647d5a6cc9d4b2b7fad146113ed576001600160a01b03851660008181526003602052604090819020805460ff1916905551600080516020611df1833981519152906111ea9060208082526044908201527f5472616e73616374696f6e2060746f602061646472657373206973206e6f742060408201527f74686520556e697377617020556e6976657273616c20526f75746572206164646060820152637265737360e01b608082015260a00190565b6001600160a01b03858116600081815260046020819052604091829020805460ff19166001179055600554915163a9059cbb60e01b81529081019290925268056bc75e2d631000006024830181905292169063a9059cbb906044016020604051808303816000875af1158015611467573d6000803e3d6000fd5b505050506040513d601f19601f8201168201806040525081019061148b9190611cdf565b508a866001600160a01b03167ff255ca8b36e5c725bc670f71948b01cfa0c198f72828712c7246825ac0e928cf838d8d6040516114ca93929190611d01565b60405180910390a35050505050505050505050505050565b6040805180820190915260008082526020820152366000806115076008828789611d1b565b61151091611d45565b60c01c90506000611525600a6008888a611d1b565b61152e91611d75565b604080518082019091526001600160401b038416815260f09190911c60208201819052915061156087600a818b611d1b565b94509450945050509250925092565b6040805160c081018252600080825260208201819052918101829052606081018290526080810182905260a0810191909152366000806115b26002828789611d1b565b6115bb91611d75565b60f01c905060006115d060066002888a611d1b565b6115d991611da3565b60e01c905060006115ee60086006898b611d1b565b6115f791611d75565b60f01c9050600061160c600c60088a8c611d1b565b61161591611da3565b60e01c9050600061162a6010600c8b8d611d1b565b61163391611da3565b60e01c90506000611648603060108c8e611d1b565b61165191611dd1565b90506040518060c001604052808761ffff1681526020018663ffffffff1681526020018561ffff1681526020018463ffffffff1681526020018363ffffffff168152602001828152508b8b60309080926116ad93929190611d1b565b9850985098505050505050509250925092565b604080516080810182526000808252602082018190529181018290526060810191909152366000806116f56002828789611d1b565b6116fe91611d75565b60f01c9050600061171360066002888a611d1b565b61171c91611da3565b60e01c9050600061173160086006898b611d1b565b61173a91611d75565b60f01c9050600061174f600c60088a8c611d1b565b61175891611da3565b6040805160808101825261ffff808816825263ffffffff8716602083015285169181019190915260e09190911c60608201819052915061179b89600c818d611d1b565b965096509650505050509250925092565b6000602082840312156117be57600080fd5b5035919050565b6000602082840312156117d757600080fd5b81356001600160401b038111156117ed57600080fd5b8201610120818503121561180057600080fd5b9392505050565b6001600160a01b03811681146108e657600080fd5b60006020828403121561182e57600080fd5b813561180081611807565b80356001600160401b038116811461185057600080fd5b919050565b60008083601f84011261186757600080fd5b5081356001600160401b0381111561187e57600080fd5b60208301915083602082850101111561189657600080fd5b9250929050565b60008060008060008060008060c0898b0312156118b957600080fd5b6118c289611839565b975060208901356118d281611807565b9650604089013595506060890135945060808901356001600160401b03808211156118fc57600080fd5b818b0191508b601f83011261191057600080fd5b81358181111561191f57600080fd5b8c60208260051b850101111561193457600080fd5b6020830196508095505060a08b013591508082111561195257600080fd5b5061195f8b828c01611855565b999c989b5096995094979396929594505050565b60008235603e1983360301811261198957600080fd5b9190910192915050565b6000808335601e198436030181126119aa57600080fd5b8301803591506001600160401b038211156119c457600080fd5b60200191503681900382131561189657600080fd5b6000602082840312156119eb57600080fd5b61180082611839565b60008235607e1983360301811261198957600080fd5b600060208284031215611a1c57600080fd5b813563ffffffff8116811461180057600080fd5b6000808335601e19843603018112611a4757600080fd5b83016020810192503590506001600160401b03811115611a6657600080fd5b8060051b360382131561189657600080fd5b81835260006001600160fb1b03831115611a9157600080fd5b8260051b80836020870137939093016020019392505050565b6000808335601e19843603018112611ac157600080fd5b83016020810192503590506001600160401b03811115611ae057600080fd5b80360382131561189657600080fd5b81835281816020850137506000828201602090810191909152601f909101601f19169091010190565b60008135611b2581611807565b6001600160a01b03168352611b3d6020830183611aaa565b60406020860152611b52604086018284611aef565b95945050505050565b60006101206001600160401b038d1683528b60208401528060408401528a3560ff8116808214611b8a57600080fd5b808386015250505060208a013561ffff8116808214611ba857600080fd5b61014084015250611bbc60408b018b611a30565b6080610160850152611bd36101a085018284611a78565b915050611be360608c018c611aaa565b84830361011f1901610180860152611bfc838284611aef565b925050508281036060840152611c12818b611b18565b9050886080840152611c2f60a08401896001600160401b03169052565b63ffffffff871660c08401526001600160a01b03861660e0840152828103610100840152611c5e818587611aef565b9d9c50505050505050505050505050565b600060208284031215611c8157600080fd5b5051919050565b60208082526021908201527f726563656970745371302e737562717565727954797065206d757374206265206040820152603560f81b606082015260800190565b634e487b7160e01b600052603260045260246000fd5b600060208284031215611cf157600080fd5b8151801515811461180057600080fd5b838152604060208201526000611b52604083018486611a78565b60008085851115611d2b57600080fd5b83861115611d3857600080fd5b5050820193919092039150565b6001600160c01b03198135818116916008851015611d6d5780818660080360031b1b83161692505b505092915050565b6001600160f01b03198135818116916002851015611d6d5760029490940360031b84901b1690921692915050565b6001600160e01b03198135818116916004851015611d6d5760049490940360031b84901b1690921692915050565b80356020831015611dea57600019602084900360031b1b165b9291505056fe8031153b90b84d8fb7737520cd5205a4168384868eee482f856fc78e8973a8f7a2646970667358221220e6b84678ef7de6f258fa328cf39857b00c45da8b2fb01f6a547e794b88089ece64736f6c63430008130033",
    "linkReferences": {}
  },
  "methodIdentifiers": {
    "SWAP_EVENT_SCHEMA()": "f790c7eb",
    "UNI_UNIV_ROUTER_ADDR()": "863af3cf",
    "axiomCallbackCallerAddr()": "45e1ef8d",
    "axiomCallbackQuerySchema()": "cd1cd725",
    "axiomV2Callback(uint64,address,bytes32,uint256,bytes32[],bytes)": "dc5cd53c",
    "axiomV2QueryAddress()": "2a75d3be",
    "callbackSourceChainId()": "0a50ec5c",
    "claimAirdrop((uint64,bytes32,(uint8,uint16,bytes32[],bytes),(address,bytes),bytes32,uint64,uint32,address,bytes))": "3c8d6f18",
    "hasClaimed(address)": "73b2e80e",
    "owner()": "8da5cb5b",
    "querySubmitted(address)": "ab72fc09",
    "renounceOwnership()": "715018a6",
    "token()": "fc0c546a",
    "transferOwnership(address)": "f2fde38b",
    "updateAirdropToken(address)": "a34c1eb4",
    "updateCallbackCallerAddr(address)": "da8c7e7a",
    "updateCallbackQuerySchema(bytes32)": "034606e0"
  },
  "id": 25
}